{
  "_format": "hh-sol-artifact-1",
  "contractName": "PaymentProcessor",
  "sourceName": "contracts/PaymentProcessor.sol",
  "abi": [
    {
      "inputs": [
        {
          "internalType": "address",
          "name": "_usdtToken",
          "type": "address"
        },
        {
          "internalType": "address",
          "name": "_adminFeeWallet",
          "type": "address"
        },
        {
          "internalType": "address",
          "name": "_globalAdminWallet",
          "type": "address"
        }
      ],
      "stateMutability": "nonpayable",
      "type": "constructor"
    },
    {
      "anonymous": false,
      "inputs": [
        {
          "indexed": true,
          "internalType": "address",
          "name": "userWallet",
          "type": "address"
        },
        {
          "indexed": false,
          "internalType": "string",
          "name": "txHash",
          "type": "string"
        },
        {
          "indexed": false,
          "internalType": "uint256",
          "name": "amount",
          "type": "uint256"
        },
        {
          "indexed": false,
          "internalType": "uint256",
          "name": "adminFee",
          "type": "uint256"
        },
        {
          "indexed": false,
          "internalType": "uint256",
          "name": "userAmount",
          "type": "uint256"
        }
      ],
      "name": "DepositProcessed",
      "type": "event"
    },
    {
      "anonymous": false,
      "inputs": [
        {
          "indexed": true,
          "internalType": "address",
          "name": "previousOwner",
          "type": "address"
        },
        {
          "indexed": true,
          "internalType": "address",
          "name": "newOwner",
          "type": "address"
        }
      ],
      "name": "OwnershipTransferred",
      "type": "event"
    },
    {
      "anonymous": false,
      "inputs": [
        {
          "indexed": true,
          "internalType": "address",
          "name": "userWallet",
          "type": "address"
        },
        {
          "indexed": false,
          "internalType": "uint256",
          "name": "amount",
          "type": "uint256"
        },
        {
          "indexed": false,
          "internalType": "uint256",
          "name": "fee",
          "type": "uint256"
        },
        {
          "indexed": false,
          "internalType": "uint256",
          "name": "netAmount",
          "type": "uint256"
        }
      ],
      "name": "WithdrawalProcessed",
      "type": "event"
    },
    {
      "inputs": [
        {
          "internalType": "address",
          "name": "processor",
          "type": "address"
        }
      ],
      "name": "addAuthorizedProcessor",
      "outputs": [],
      "stateMutability": "nonpayable",
      "type": "function"
    },
    {
      "inputs": [],
      "name": "adminFeeWallet",
      "outputs": [
        {
          "internalType": "address",
          "name": "",
          "type": "address"
        }
      ],
      "stateMutability": "view",
      "type": "function"
    },
    {
      "inputs": [
        {
          "internalType": "address",
          "name": "",
          "type": "address"
        }
      ],
      "name": "authorizedProcessors",
      "outputs": [
        {
          "internalType": "bool",
          "name": "",
          "type": "bool"
        }
      ],
      "stateMutability": "view",
      "type": "function"
    },
    {
      "inputs": [],
      "name": "depositFeePercent",
      "outputs": [
        {
          "internalType": "uint256",
          "name": "",
          "type": "uint256"
        }
      ],
      "stateMutability": "view",
      "type": "function"
    },
    {
      "inputs": [],
      "name": "globalAdminWallet",
      "outputs": [
        {
          "internalType": "address",
          "name": "",
          "type": "address"
        }
      ],
      "stateMutability": "view",
      "type": "function"
    },
    {
      "inputs": [],
      "name": "owner",
      "outputs": [
        {
          "internalType": "address",
          "name": "",
          "type": "address"
        }
      ],
      "stateMutability": "view",
      "type": "function"
    },
    {
      "inputs": [
        {
          "internalType": "address",
          "name": "userWallet",
          "type": "address"
        },
        {
          "internalType": "string",
          "name": "txHash",
          "type": "string"
        },
        {
          "internalType": "uint256",
          "name": "amount",
          "type": "uint256"
        }
      ],
      "name": "processDeposit",
      "outputs": [],
      "stateMutability": "nonpayable",
      "type": "function"
    },
    {
      "inputs": [
        {
          "internalType": "address",
          "name": "userWallet",
          "type": "address"
        },
        {
          "internalType": "uint256",
          "name": "amount",
          "type": "uint256"
        }
      ],
      "name": "processWithdrawal",
      "outputs": [],
      "stateMutability": "nonpayable",
      "type": "function"
    },
    {
      "inputs": [
        {
          "internalType": "string",
          "name": "",
          "type": "string"
        }
      ],
      "name": "processedTransactions",
      "outputs": [
        {
          "internalType": "bool",
          "name": "",
          "type": "bool"
        }
      ],
      "stateMutability": "view",
      "type": "function"
    },
    {
      "inputs": [
        {
          "internalType": "address",
          "name": "processor",
          "type": "address"
        }
      ],
      "name": "removeAuthorizedProcessor",
      "outputs": [],
      "stateMutability": "nonpayable",
      "type": "function"
    },
    {
      "inputs": [],
      "name": "renounceOwnership",
      "outputs": [],
      "stateMutability": "nonpayable",
      "type": "function"
    },
    {
      "inputs": [
        {
          "internalType": "address",
          "name": "newOwner",
          "type": "address"
        }
      ],
      "name": "transferOwnership",
      "outputs": [],
      "stateMutability": "nonpayable",
      "type": "function"
    },
    {
      "inputs": [
        {
          "internalType": "uint256",
          "name": "_depositFee",
          "type": "uint256"
        },
        {
          "internalType": "uint256",
          "name": "_withdrawalFee",
          "type": "uint256"
        }
      ],
      "name": "updateFees",
      "outputs": [],
      "stateMutability": "nonpayable",
      "type": "function"
    },
    {
      "inputs": [
        {
          "internalType": "address",
          "name": "_adminFeeWallet",
          "type": "address"
        },
        {
          "internalType": "address",
          "name": "_globalAdminWallet",
          "type": "address"
        }
      ],
      "name": "updateWallets",
      "outputs": [],
      "stateMutability": "nonpayable",
      "type": "function"
    },
    {
      "inputs": [],
      "name": "usdtToken",
      "outputs": [
        {
          "internalType": "contract IERC20",
          "name": "",
          "type": "address"
        }
      ],
      "stateMutability": "view",
      "type": "function"
    },
    {
      "inputs": [],
      "name": "withdrawalFeePercent",
      "outputs": [
        {
          "internalType": "uint256",
          "name": "",
          "type": "uint256"
        }
      ],
      "stateMutability": "view",
      "type": "function"
    }
  ],
  "bytecode": "0x60806040526002600555600560065534801561001a57600080fd5b50604051610fe0380380610fe0833981016040819052610039916100f4565b61004233610088565b60018055600280546001600160a01b039485166001600160a01b031991821617909155600380549385169382169390931790925560048054919093169116179055610137565b600080546001600160a01b038381166001600160a01b0319831681178455604051919092169283917f8be0079c531659141344cd1fd0a4f28419497f9722a3daafe3b4186f6b6457e09190a35050565b80516001600160a01b03811681146100ef57600080fd5b919050565b60008060006060848603121561010957600080fd5b610112846100d8565b9250610120602085016100d8565b915061012e604085016100d8565b90509250925092565b610e9a806101466000396000f3fe608060405234801561001057600080fd5b50600436106101005760003560e01c80638429cc9311610097578063a98ad46c11610066578063a98ad46c1461023a578063cc1252ae1461024d578063e8ba854f14610256578063f2fde38b1461026957600080fd5b80638429cc93146101d15780638da5cb5b146101e45780639ea32844146101f5578063a0499b3b1461022357600080fd5b8063715018a6116100d3578063715018a614610170578063781c065c14610178578063801beaee146101ab5780638260910c146101be57600080fd5b80632ee4206b14610105578063453d87c3146101355780635b2000d91461014a5780636db794371461015d575b600080fd5b600354610118906001600160a01b031681565b6040516001600160a01b0390911681526020015b60405180910390f35b610148610143366004610b57565b61027c565b005b600454610118906001600160a01b031681565b61014861016b366004610b79565b6102a5565b61014861030b565b61019b610186366004610b57565b60076020526000908152604090205460ff1681565b604051901515815260200161012c565b6101486101b9366004610b57565b61031f565b6101486101cc366004610b9b565b61034b565b6101486101df366004610c68565b610618565b6000546001600160a01b0316610118565b61019b610203366004610cbf565b805160208183018101805160088252928201919093012091525460ff1681565b61022c60065481565b60405190815260200161012c565b600254610118906001600160a01b031681565b61022c60055481565b610148610264366004610cfc565b610989565b610148610277366004610b57565b6109bf565b610284610a38565b6001600160a01b03166000908152600760205260409020805460ff19169055565b6102ad610a38565b600a82111580156102bf575060148111155b6103005760405162461bcd60e51b815260206004820152600d60248201526c08ccacae640e8dede40d0d2ced609b1b60448201526064015b60405180910390fd5b600591909155600655565b610313610a38565b61031d6000610a92565b565b610327610a38565b6001600160a01b03166000908152600760205260409020805460ff19166001179055565b3360009081526007602052604090205460ff168061037357506000546001600160a01b031633145b6103b05760405162461bcd60e51b815260206004820152600e60248201526d139bdd08185d5d1a1bdc9a5e995960921b60448201526064016102f7565b6103b8610ae2565b600081116104085760405162461bcd60e51b815260206004820152601d60248201527f416d6f756e74206d7573742062652067726561746572207468616e203000000060448201526064016102f7565b600060646006548361041a9190610d45565b6104249190610d62565b905060006104328284610d84565b600254600480546003546040516323b872dd60e01b81529495506001600160a01b03938416946323b872dd946104719493811693921691889101610d97565b6020604051808303816000875af1158015610490573d6000803e3d6000fd5b505050506040513d601f19601f820116820180604052508101906104b49190610dbb565b6104f65760405162461bcd60e51b8152602060048201526013602482015272119959481d1c985b9cd9995c8819985a5b1959606a1b60448201526064016102f7565b600254600480546040516323b872dd60e01b81526001600160a01b03938416936323b872dd9361052e93909116918991879101610d97565b6020604051808303816000875af115801561054d573d6000803e3d6000fd5b505050506040513d601f19601f820116820180604052508101906105719190610dbb565b6105bd5760405162461bcd60e51b815260206004820152601a60248201527f5769746864726177616c207472616e73666572206661696c656400000000000060448201526064016102f7565b60408051848152602081018490529081018290526001600160a01b038516907fbe1e8e357f01b865f7bbd4055ed6fbaf1e3029820a3051bc7157277b813022b99060600160405180910390a2505061061460018055565b5050565b3360009081526007602052604090205460ff168061064057506000546001600160a01b031633145b61067d5760405162461bcd60e51b815260206004820152600e60248201526d139bdd08185d5d1a1bdc9a5e995960921b60448201526064016102f7565b610685610ae2565b6008826040516106959190610e01565b9081526040519081900360200190205460ff16156106f55760405162461bcd60e51b815260206004820152601d60248201527f5472616e73616374696f6e20616c72656164792070726f63657373656400000060448201526064016102f7565b600081116107455760405162461bcd60e51b815260206004820152601d60248201527f416d6f756e74206d7573742062652067726561746572207468616e203000000060448201526064016102f7565b60016008836040516107579190610e01565b908152604051908190036020019020805491151560ff1990921691909117905560055460009060649061078a9084610d45565b6107949190610d62565b905060006107a28284610d84565b6002546003546040516323b872dd60e01b81529293506001600160a01b03918216926323b872dd926107dd928a929116908790600401610d97565b6020604051808303816000875af11580156107fc573d6000803e3d6000fd5b505050506040513d601f19601f820116820180604052508101906108209190610dbb565b61086c5760405162461bcd60e51b815260206004820152601960248201527f41646d696e20666565207472616e73666572206661696c65640000000000000060448201526064016102f7565b600254600480546040516323b872dd60e01b81526001600160a01b03938416936323b872dd936108a3938b93921691879101610d97565b6020604051808303816000875af11580156108c2573d6000803e3d6000fd5b505050506040513d601f19601f820116820180604052508101906108e69190610dbb565b6109325760405162461bcd60e51b815260206004820152601b60248201527f5573657220616d6f756e74207472616e73666572206661696c6564000000000060448201526064016102f7565b846001600160a01b03167f0da9ca3d98ac060bef1fbccb9f1c46dd39611437fab210783473b8ce25e58211858585856040516109719493929190610e1d565b60405180910390a2505061098460018055565b505050565b610991610a38565b600380546001600160a01b039384166001600160a01b03199182161790915560048054929093169116179055565b6109c7610a38565b6001600160a01b038116610a2c5760405162461bcd60e51b815260206004820152602660248201527f4f776e61626c653a206e6577206f776e657220697320746865207a65726f206160448201526564647265737360d01b60648201526084016102f7565b610a3581610a92565b50565b6000546001600160a01b0316331461031d5760405162461bcd60e51b815260206004820181905260248201527f4f776e61626c653a2063616c6c6572206973206e6f7420746865206f776e657260448201526064016102f7565b600080546001600160a01b038381166001600160a01b0319831681178455604051919092169283917f8be0079c531659141344cd1fd0a4f28419497f9722a3daafe3b4186f6b6457e09190a35050565b600260015403610b345760405162461bcd60e51b815260206004820152601f60248201527f5265656e7472616e637947756172643a207265656e7472616e742063616c6c0060448201526064016102f7565b6002600155565b80356001600160a01b0381168114610b5257600080fd5b919050565b600060208284031215610b6957600080fd5b610b7282610b3b565b9392505050565b60008060408385031215610b8c57600080fd5b50508035926020909101359150565b60008060408385031215610bae57600080fd5b610bb783610b3b565b946020939093013593505050565b634e487b7160e01b600052604160045260246000fd5b600082601f830112610bec57600080fd5b813567ffffffffffffffff80821115610c0757610c07610bc5565b604051601f8301601f19908116603f01168101908282118183101715610c2f57610c2f610bc5565b81604052838152866020858801011115610c4857600080fd5b836020870160208301376000602085830101528094505050505092915050565b600080600060608486031215610c7d57600080fd5b610c8684610b3b565b9250602084013567ffffffffffffffff811115610ca257600080fd5b610cae86828701610bdb565b925050604084013590509250925092565b600060208284031215610cd157600080fd5b813567ffffffffffffffff811115610ce857600080fd5b610cf484828501610bdb565b949350505050565b60008060408385031215610d0f57600080fd5b610d1883610b3b565b9150610d2660208401610b3b565b90509250929050565b634e487b7160e01b600052601160045260246000fd5b8082028115828204841417610d5c57610d5c610d2f565b92915050565b600082610d7f57634e487b7160e01b600052601260045260246000fd5b500490565b81810381811115610d5c57610d5c610d2f565b6001600160a01b039384168152919092166020820152604081019190915260600190565b600060208284031215610dcd57600080fd5b81518015158114610b7257600080fd5b60005b83811015610df8578181015183820152602001610de0565b50506000910152565b60008251610e13818460208701610ddd565b9190910192915050565b6080815260008551806080840152610e3c8160a0850160208a01610ddd565b6020830195909552506040810192909252606082015260a0601f909201601f1916010191905056fea2646970667358221220f7060496664894e9fd172db280e9bdbeb9453b4643093584c509bbda1dc66dea64736f6c63430008130033",
  "linkReferences": {},
  "deployedLinkReferences": {}
}