{
  "_format": "hh-sol-artifact-1",
  "contractName": "TestUSDT",
  "sourceName": "contracts/TestUSDT.sol",
  "abi": [
    {
      "inputs": [],
      "stateMutability": "nonpayable",
      "type": "constructor"
    },
    {
      "anonymous": false,
      "inputs": [
        {
          "indexed": true,
          "internalType": "address",
          "name": "owner",
          "type": "address"
        },
        {
          "indexed": true,
          "internalType": "address",
          "name": "spender",
          "type": "address"
        },
        {
          "indexed": false,
          "internalType": "uint256",
          "name": "value",
          "type": "uint256"
        }
      ],
      "name": "Approval",
      "type": "event"
    },
    {
      "anonymous": false,
      "inputs": [
        {
          "indexed": true,
          "internalType": "address",
          "name": "previousOwner",
          "type": "address"
        },
        {
          "indexed": true,
          "internalType": "address",
          "name": "newOwner",
          "type": "address"
        }
      ],
      "name": "OwnershipTransferred",
      "type": "event"
    },
    {
      "anonymous": false,
      "inputs": [
        {
          "indexed": true,
          "internalType": "address",
          "name": "from",
          "type": "address"
        },
        {
          "indexed": true,
          "internalType": "address",
          "name": "to",
          "type": "address"
        },
        {
          "indexed": false,
          "internalType": "uint256",
          "name": "value",
          "type": "uint256"
        }
      ],
      "name": "Transfer",
      "type": "event"
    },
    {
      "inputs": [
        {
          "internalType": "address",
          "name": "owner",
          "type": "address"
        },
        {
          "internalType": "address",
          "name": "spender",
          "type": "address"
        }
      ],
      "name": "allowance",
      "outputs": [
        {
          "internalType": "uint256",
          "name": "",
          "type": "uint256"
        }
      ],
      "stateMutability": "view",
      "type": "function"
    },
    {
      "inputs": [
        {
          "internalType": "address",
          "name": "spender",
          "type": "address"
        },
        {
          "internalType": "uint256",
          "name": "amount",
          "type": "uint256"
        }
      ],
      "name": "approve",
      "outputs": [
        {
          "internalType": "bool",
          "name": "",
          "type": "bool"
        }
      ],
      "stateMutability": "nonpayable",
      "type": "function"
    },
    {
      "inputs": [
        {
          "internalType": "address",
          "name": "account",
          "type": "address"
        }
      ],
      "name": "balanceOf",
      "outputs": [
        {
          "internalType": "uint256",
          "name": "",
          "type": "uint256"
        }
      ],
      "stateMutability": "view",
      "type": "function"
    },
    {
      "inputs": [],
      "name": "decimals",
      "outputs": [
        {
          "internalType": "uint8",
          "name": "",
          "type": "uint8"
        }
      ],
      "stateMutability": "view",
      "type": "function"
    },
    {
      "inputs": [
        {
          "internalType": "address",
          "name": "spender",
          "type": "address"
        },
        {
          "internalType": "uint256",
          "name": "subtractedValue",
          "type": "uint256"
        }
      ],
      "name": "decreaseAllowance",
      "outputs": [
        {
          "internalType": "bool",
          "name": "",
          "type": "bool"
        }
      ],
      "stateMutability": "nonpayable",
      "type": "function"
    },
    {
      "inputs": [],
      "name": "faucet",
      "outputs": [],
      "stateMutability": "nonpayable",
      "type": "function"
    },
    {
      "inputs": [
        {
          "internalType": "address",
          "name": "spender",
          "type": "address"
        },
        {
          "internalType": "uint256",
          "name": "addedValue",
          "type": "uint256"
        }
      ],
      "name": "increaseAllowance",
      "outputs": [
        {
          "internalType": "bool",
          "name": "",
          "type": "bool"
        }
      ],
      "stateMutability": "nonpayable",
      "type": "function"
    },
    {
      "inputs": [
        {
          "internalType": "address",
          "name": "to",
          "type": "address"
        },
        {
          "internalType": "uint256",
          "name": "amount",
          "type": "uint256"
        }
      ],
      "name": "mint",
      "outputs": [],
      "stateMutability": "nonpayable",
      "type": "function"
    },
    {
      "inputs": [],
      "name": "name",
      "outputs": [
        {
          "internalType": "string",
          "name": "",
          "type": "string"
        }
      ],
      "stateMutability": "view",
      "type": "function"
    },
    {
      "inputs": [],
      "name": "owner",
      "outputs": [
        {
          "internalType": "address",
          "name": "",
          "type": "address"
        }
      ],
      "stateMutability": "view",
      "type": "function"
    },
    {
      "inputs": [
        {
          "internalType": "address",
          "name": "to",
          "type": "address"
        },
        {
          "internalType": "uint256",
          "name": "amount",
          "type": "uint256"
        }
      ],
      "name": "ownerMint",
      "outputs": [],
      "stateMutability": "nonpayable",
      "type": "function"
    },
    {
      "inputs": [],
      "name": "renounceOwnership",
      "outputs": [],
      "stateMutability": "nonpayable",
      "type": "function"
    },
    {
      "inputs": [],
      "name": "symbol",
      "outputs": [
        {
          "internalType": "string",
          "name": "",
          "type": "string"
        }
      ],
      "stateMutability": "view",
      "type": "function"
    },
    {
      "inputs": [],
      "name": "totalSupply",
      "outputs": [
        {
          "internalType": "uint256",
          "name": "",
          "type": "uint256"
        }
      ],
      "stateMutability": "view",
      "type": "function"
    },
    {
      "inputs": [
        {
          "internalType": "address",
          "name": "to",
          "type": "address"
        },
        {
          "internalType": "uint256",
          "name": "amount",
          "type": "uint256"
        }
      ],
      "name": "transfer",
      "outputs": [
        {
          "internalType": "bool",
          "name": "",
          "type": "bool"
        }
      ],
      "stateMutability": "nonpayable",
      "type": "function"
    },
    {
      "inputs": [
        {
          "internalType": "address",
          "name": "from",
          "type": "address"
        },
        {
          "internalType": "address",
          "name": "to",
          "type": "address"
        },
        {
          "internalType": "uint256",
          "name": "amount",
          "type": "uint256"
        }
      ],
      "name": "transferFrom",
      "outputs": [
        {
          "internalType": "bool",
          "name": "",
          "type": "bool"
        }
      ],
      "stateMutability": "nonpayable",
      "type": "function"
    },
    {
      "inputs": [
        {
          "internalType": "address",
          "name": "newOwner",
          "type": "address"
        }
      ],
      "name": "transferOwnership",
      "outputs": [],
      "stateMutability": "nonpayable",
      "type": "function"
    }
  ],
  "bytecode": "0x60806040523480156200001157600080fd5b506040518060400160405280600981526020016815195cdd081554d11560ba1b81525060405180604001604052806005815260200164151554d11560da1b8152508160039081620000639190620002a8565b506004620000728282620002a8565b5050506200008f62000089620000e360201b60201c565b620000e7565b6005805460ff60a01b1916600960a11b179055620000dd33620000bb600554600160a01b900460ff1690565b620000c890600a62000489565b620000d790620f4240620004a1565b62000139565b620004d1565b3390565b600580546001600160a01b038381166001600160a01b0319831681179093556040519116919082907f8be0079c531659141344cd1fd0a4f28419497f9722a3daafe3b4186f6b6457e090600090a35050565b6001600160a01b038216620001945760405162461bcd60e51b815260206004820152601f60248201527f45524332303a206d696e7420746f20746865207a65726f206164647265737300604482015260640160405180910390fd5b8060026000828254620001a89190620004bb565b90915550506001600160a01b038216600081815260208181526040808320805486019055518481527fddf252ad1be2c89b69c2b068fc378daa952ba7f163c4a11628f55a4df523b3ef910160405180910390a35050565b505050565b634e487b7160e01b600052604160045260246000fd5b600181811c908216806200022f57607f821691505b6020821081036200025057634e487b7160e01b600052602260045260246000fd5b50919050565b601f821115620001ff57600081815260208120601f850160051c810160208610156200027f5750805b601f850160051c820191505b81811015620002a0578281556001016200028b565b505050505050565b81516001600160401b03811115620002c457620002c462000204565b620002dc81620002d584546200021a565b8462000256565b602080601f831160018114620003145760008415620002fb5750858301515b600019600386901b1c1916600185901b178555620002a0565b600085815260208120601f198616915b82811015620003455788860151825594840194600190910190840162000324565b5085821015620003645787850151600019600388901b60f8161c191681555b5050505050600190811b01905550565b634e487b7160e01b600052601160045260246000fd5b600181815b80851115620003cb578160001904821115620003af57620003af62000374565b80851615620003bd57918102915b93841c93908002906200038f565b509250929050565b600082620003e45750600162000483565b81620003f35750600062000483565b81600181146200040c5760028114620004175762000437565b600191505062000483565b60ff8411156200042b576200042b62000374565b50506001821b62000483565b5060208310610133831016604e8410600b84101617156200045c575081810a62000483565b6200046883836200038a565b80600019048211156200047f576200047f62000374565b0290505b92915050565b60006200049a60ff841683620003d3565b9392505050565b808202811582820484141762000483576200048362000374565b8082018082111562000483576200048362000374565b610c7e80620004e16000396000f3fe608060405234801561001057600080fd5b506004361061010b5760003560e01c806370a08231116100a2578063a457c2d711610071578063a457c2d714610224578063a9059cbb14610237578063dd62ed3e1461024a578063de5f72fd1461025d578063f2fde38b1461026557600080fd5b806370a08231146101d0578063715018a6146101f95780638da5cb5b1461020157806395d89b411461021c57600080fd5b8063313ce567116100de578063313ce56714610176578063395093511461019557806340c10f19146101a8578063484b973c146101bd57600080fd5b806306fdde0314610110578063095ea7b31461012e57806318160ddd1461015157806323b872dd14610163575b600080fd5b610118610278565b60405161012591906109b6565b60405180910390f35b61014161013c366004610a20565b61030a565b6040519015158152602001610125565b6002545b604051908152602001610125565b610141610171366004610a4a565b610324565b600554600160a01b900460ff1660405160ff9091168152602001610125565b6101416101a3366004610a20565b610348565b6101bb6101b6366004610a20565b61036a565b005b6101bb6101cb366004610a20565b610378565b6101556101de366004610a86565b6001600160a01b031660009081526020819052604090205490565b6101bb610380565b6005546040516001600160a01b039091168152602001610125565b610118610394565b610141610232366004610a20565b6103a3565b610141610245366004610a20565b610423565b610155610258366004610aa8565b610431565b6101bb61045c565b6101bb610273366004610a86565b610490565b60606003805461028790610adb565b80601f01602080910402602001604051908101604052809291908181526020018280546102b390610adb565b80156103005780601f106102d557610100808354040283529160200191610300565b820191906000526020600020905b8154815290600101906020018083116102e357829003601f168201915b5050505050905090565b600033610318818585610509565b60019150505b92915050565b60003361033285828561062d565b61033d8585856106a7565b506001949350505050565b60003361031881858561035b8383610431565b6103659190610b2b565b610509565b610374828261084b565b5050565b61036a61090a565b61038861090a565b6103926000610964565b565b60606004805461028790610adb565b600033816103b18286610431565b9050838110156104165760405162461bcd60e51b815260206004820152602560248201527f45524332303a2064656372656173656420616c6c6f77616e63652062656c6f77604482015264207a65726f60d81b60648201526084015b60405180910390fd5b61033d8286868403610509565b6000336103188185856106a7565b6001600160a01b03918216600090815260016020908152604080832093909416825291909152205490565b6103923361047460055460ff600160a01b9091041690565b61047f90600a610c22565b61048b906103e8610c31565b61084b565b61049861090a565b6001600160a01b0381166104fd5760405162461bcd60e51b815260206004820152602660248201527f4f776e61626c653a206e6577206f776e657220697320746865207a65726f206160448201526564647265737360d01b606482015260840161040d565b61050681610964565b50565b6001600160a01b03831661056b5760405162461bcd60e51b8152602060048201526024808201527f45524332303a20617070726f76652066726f6d20746865207a65726f206164646044820152637265737360e01b606482015260840161040d565b6001600160a01b0382166105cc5760405162461bcd60e51b815260206004820152602260248201527f45524332303a20617070726f766520746f20746865207a65726f206164647265604482015261737360f01b606482015260840161040d565b6001600160a01b0383811660008181526001602090815260408083209487168084529482529182902085905590518481527f8c5be1e5ebec7d5bd14f71427d1e84f3dd0314c0f7b2291e5b200ac8c7c3b925910160405180910390a3505050565b60006106398484610431565b905060001981146106a157818110156106945760405162461bcd60e51b815260206004820152601d60248201527f45524332303a20696e73756666696369656e7420616c6c6f77616e6365000000604482015260640161040d565b6106a18484848403610509565b50505050565b6001600160a01b03831661070b5760405162461bcd60e51b815260206004820152602560248201527f45524332303a207472616e736665722066726f6d20746865207a65726f206164604482015264647265737360d81b606482015260840161040d565b6001600160a01b03821661076d5760405162461bcd60e51b815260206004820152602360248201527f45524332303a207472616e7366657220746f20746865207a65726f206164647260448201526265737360e81b606482015260840161040d565b6001600160a01b038316600090815260208190526040902054818110156107e55760405162461bcd60e51b815260206004820152602660248201527f45524332303a207472616e7366657220616d6f756e7420657863656564732062604482015265616c616e636560d01b606482015260840161040d565b6001600160a01b03848116600081815260208181526040808320878703905593871680835291849020805487019055925185815290927fddf252ad1be2c89b69c2b068fc378daa952ba7f163c4a11628f55a4df523b3ef910160405180910390a36106a1565b6001600160a01b0382166108a15760405162461bcd60e51b815260206004820152601f60248201527f45524332303a206d696e7420746f20746865207a65726f206164647265737300604482015260640161040d565b80600260008282546108b39190610b2b565b90915550506001600160a01b038216600081815260208181526040808320805486019055518481527fddf252ad1be2c89b69c2b068fc378daa952ba7f163c4a11628f55a4df523b3ef910160405180910390a35050565b6005546001600160a01b031633146103925760405162461bcd60e51b815260206004820181905260248201527f4f776e61626c653a2063616c6c6572206973206e6f7420746865206f776e6572604482015260640161040d565b600580546001600160a01b038381166001600160a01b0319831681179093556040519116919082907f8be0079c531659141344cd1fd0a4f28419497f9722a3daafe3b4186f6b6457e090600090a35050565b600060208083528351808285015260005b818110156109e3578581018301518582016040015282016109c7565b506000604082860101526040601f19601f8301168501019250505092915050565b80356001600160a01b0381168114610a1b57600080fd5b919050565b60008060408385031215610a3357600080fd5b610a3c83610a04565b946020939093013593505050565b600080600060608486031215610a5f57600080fd5b610a6884610a04565b9250610a7660208501610a04565b9150604084013590509250925092565b600060208284031215610a9857600080fd5b610aa182610a04565b9392505050565b60008060408385031215610abb57600080fd5b610ac483610a04565b9150610ad260208401610a04565b90509250929050565b600181811c90821680610aef57607f821691505b602082108103610b0f57634e487b7160e01b600052602260045260246000fd5b50919050565b634e487b7160e01b600052601160045260246000fd5b8082018082111561031e5761031e610b15565b600181815b80851115610b79578160001904821115610b5f57610b5f610b15565b80851615610b6c57918102915b93841c9390800290610b43565b509250929050565b600082610b905750600161031e565b81610b9d5750600061031e565b8160018114610bb35760028114610bbd57610bd9565b600191505061031e565b60ff841115610bce57610bce610b15565b50506001821b61031e565b5060208310610133831016604e8410600b8410161715610bfc575081810a61031e565b610c068383610b3e565b8060001904821115610c1a57610c1a610b15565b029392505050565b6000610aa160ff841683610b81565b808202811582820484141761031e5761031e610b1556fea264697066735822122095d264916bdfd60c3a94354b7928c158814ff4aaa5380c82a8e0a0c354ed350764736f6c63430008130033",
  "linkReferences": {},
  "deployedLinkReferences": {}
}